{"contracts/MerkleProofVerifier.sol":{"MerkleProofVerifier":{"abi":[{"inputs":[{"internalType":"address","name":"initialOwner","type":"address"},{"internalType":"bytes32","name":"_merkleRoot","type":"bytes32"}],"stateMutability":"nonpayable","type":"constructor"},{"inputs":[{"internalType":"address","name":"owner","type":"address"}],"name":"OwnableInvalidOwner","type":"error"},{"inputs":[{"internalType":"address","name":"account","type":"address"}],"name":"OwnableUnauthorizedAccount","type":"error"},{"anonymous":false,"inputs":[{"indexed":true,"internalType":"address","name":"previousOwner","type":"address"},{"indexed":true,"internalType":"address","name":"newOwner","type":"address"}],"name":"OwnershipTransferred","type":"event"},{"inputs":[],"name":"merkleRoot","outputs":[{"internalType":"bytes32","name":"","type":"bytes32"}],"stateMutability":"view","type":"function"},{"inputs":[],"name":"owner","outputs":[{"internalType":"address","name":"","type":"address"}],"stateMutability":"view","type":"function"},{"inputs":[],"name":"renounceOwnership","outputs":[],"stateMutability":"nonpayable","type":"function"},{"inputs":[{"internalType":"bytes32","name":"_merkleRoot","type":"bytes32"}],"name":"setMerkleRoot","outputs":[],"stateMutability":"nonpayable","type":"function"},{"inputs":[{"internalType":"address","name":"newOwner","type":"address"}],"name":"transferOwnership","outputs":[],"stateMutability":"nonpayable","type":"function"},{"inputs":[{"internalType":"bytes32[]","name":"proof","type":"bytes32[]"},{"internalType":"bytes32","name":"leaf","type":"bytes32"}],"name":"verifyMerkleProof","outputs":[{"internalType":"bool","name":"","type":"bool"}],"stateMutability":"view","type":"function"}],"evm":{"bytecode":{"linkReferences":{},"object":"608060405234801561001057600080fd5b50604051610a11380380610a1183398181016040528101906100329190610220565b81600073ffffffffffffffffffffffffffffffffffffffff168173ffffffffffffffffffffffffffffffffffffffff16036100a55760006040517f1e4fbdf700000000000000000000000000000000000000000000000000000000815260040161009c919061026f565b60405180910390fd5b6100b4816100c360201b60201c565b5080600181905550505061028a565b60008060009054906101000a900473ffffffffffffffffffffffffffffffffffffffff169050816000806101000a81548173ffffffffffffffffffffffffffffffffffffffff021916908373ffffffffffffffffffffffffffffffffffffffff1602179055508173ffffffffffffffffffffffffffffffffffffffff168173ffffffffffffffffffffffffffffffffffffffff167f8be0079c531659141344cd1fd0a4f28419497f9722a3daafe3b4186f6b6457e060405160405180910390a35050565b600080fd5b600073ffffffffffffffffffffffffffffffffffffffff82169050919050565b60006101b78261018c565b9050919050565b6101c7816101ac565b81146101d257600080fd5b50565b6000815190506101e4816101be565b92915050565b6000819050919050565b6101fd816101ea565b811461020857600080fd5b50565b60008151905061021a816101f4565b92915050565b6000806040838503121561023757610236610187565b5b6000610245858286016101d5565b92505060206102568582860161020b565b9150509250929050565b610269816101ac565b82525050565b60006020820190506102846000830184610260565b92915050565b610778806102996000396000f3fe608060405234801561001057600080fd5b50600436106100625760003560e01c80632eb4a7ab146100675780635f04405214610085578063715018a6146100b55780637cb64759146100bf5780638da5cb5b146100db578063f2fde38b146100f9575b600080fd5b61006f610115565b60405161007c9190610464565b60405180910390f35b61009f600480360381019061009a919061051a565b61011b565b6040516100ac9190610595565b60405180910390f35b6100bd610174565b005b6100d960048036038101906100d491906105b0565b610188565b005b6100e361019a565b6040516100f0919061061e565b60405180910390f35b610113600480360381019061010e9190610665565b6101c3565b005b60015481565b600061016b848480806020026020016040519081016040528093929190818152602001838360200280828437600081840152601f19601f8201169050808301925050505050505060015484610249565b90509392505050565b61017c610260565b61018660006102e7565b565b610190610260565b8060018190555050565b60008060009054906101000a900473ffffffffffffffffffffffffffffffffffffffff16905090565b6101cb610260565b600073ffffffffffffffffffffffffffffffffffffffff168173ffffffffffffffffffffffffffffffffffffffff160361023d5760006040517f1e4fbdf7000000000000000000000000000000000000000000000000000000008152600401610234919061061e565b60405180910390fd5b610246816102e7565b50565b60008261025685846103ab565b1490509392505050565b610268610401565b73ffffffffffffffffffffffffffffffffffffffff1661028661019a565b73ffffffffffffffffffffffffffffffffffffffff16146102e5576102a9610401565b6040517f118cdaa70000000000000000000000000000000000000000000000000000000081526004016102dc919061061e565b60405180910390fd5b565b60008060009054906101000a900473ffffffffffffffffffffffffffffffffffffffff169050816000806101000a81548173ffffffffffffffffffffffffffffffffffffffff021916908373ffffffffffffffffffffffffffffffffffffffff1602179055508173ffffffffffffffffffffffffffffffffffffffff168173ffffffffffffffffffffffffffffffffffffffff167f8be0079c531659141344cd1fd0a4f28419497f9722a3daafe3b4186f6b6457e060405160405180910390a35050565b60008082905060005b84518110156103f6576103e1828683815181106103d4576103d3610692565b5b6020026020010151610409565b915080806103ee906106fa565b9150506103b4565b508091505092915050565b600033905090565b60008183106104215761041c8284610434565b61042c565b61042b8383610434565b5b905092915050565b600082600052816020526040600020905092915050565b6000819050919050565b61045e8161044b565b82525050565b60006020820190506104796000830184610455565b92915050565b600080fd5b600080fd5b600080fd5b600080fd5b600080fd5b60008083601f8401126104ae576104ad610489565b5b8235905067ffffffffffffffff8111156104cb576104ca61048e565b5b6020830191508360208202830111156104e7576104e6610493565b5b9250929050565b6104f78161044b565b811461050257600080fd5b50565b600081359050610514816104ee565b92915050565b6000806000604084860312156105335761053261047f565b5b600084013567ffffffffffffffff81111561055157610550610484565b5b61055d86828701610498565b9350935050602061057086828701610505565b9150509250925092565b60008115159050919050565b61058f8161057a565b82525050565b60006020820190506105aa6000830184610586565b92915050565b6000602082840312156105c6576105c561047f565b5b60006105d484828501610505565b91505092915050565b600073ffffffffffffffffffffffffffffffffffffffff82169050919050565b6000610608826105dd565b9050919050565b610618816105fd565b82525050565b6000602082019050610633600083018461060f565b92915050565b610642816105fd565b811461064d57600080fd5b50565b60008135905061065f81610639565b92915050565b60006020828403121561067b5761067a61047f565b5b600061068984828501610650565b91505092915050565b7f4e487b7100000000000000000000000000000000000000000000000000000000600052603260045260246000fd5b7f4e487b7100000000000000000000000000000000000000000000000000000000600052601160045260246000fd5b6000819050919050565b6000610705826106f0565b91507fffffffffffffffffffffffffffffffffffffffffffffffffffffffffffffffff8203610737576107366106c1565b5b60018201905091905056fea2646970667358221220385ea86727baa766944019e49412e8d9cc305949df02fa37eccf567bcf85226e64736f6c63430008140033","opcodes":"PUSH1 0x80 PUSH1 0x40 MSTORE CALLVALUE DUP1 ISZERO PUSH2 0x10 JUMPI PUSH1 0x0 DUP1 REVERT JUMPDEST POP PUSH1 0x40 MLOAD PUSH2 0xA11 CODESIZE SUB DUP1 PUSH2 0xA11 DUP4 CODECOPY DUP2 DUP2 ADD PUSH1 0x40 MSTORE DUP2 ADD SWAP1 PUSH2 0x32 SWAP2 SWAP1 PUSH2 0x220 JUMP JUMPDEST DUP2 PUSH1 0x0 PUSH20 0xFFFFFFFFFFFFFFFFFFFFFFFFFFFFFFFFFFFFFFFF AND DUP2 PUSH20 0xFFFFFFFFFFFFFFFFFFFFFFFFFFFFFFFFFFFFFFFF AND SUB PUSH2 0xA5 JUMPI PUSH1 0x0 PUSH1 0x40 MLOAD PUSH32 0x1E4FBDF700000000000000000000000000000000000000000000000000000000 DUP2 MSTORE PUSH1 0x4 ADD PUSH2 0x9C SWAP2 SWAP1 PUSH2 0x26F JUMP JUMPDEST PUSH1 0x40 MLOAD DUP1 SWAP2 SUB SWAP1 REVERT JUMPDEST PUSH2 0xB4 DUP2 PUSH2 0xC3 PUSH1 0x20 SHL PUSH1 0x20 SHR JUMP JUMPDEST POP DUP1 PUSH1 0x1 DUP2 SWAP1 SSTORE POP POP POP PUSH2 0x28A JUMP JUMPDEST PUSH1 0x0 DUP1 PUSH1 0x0 SWAP1 SLOAD SWAP1 PUSH2 0x100 EXP SWAP1 DIV PUSH20 0xFFFFFFFFFFFFFFFFFFFFFFFFFFFFFFFFFFFFFFFF AND SWAP1 POP DUP2 PUSH1 0x0 DUP1 PUSH2 0x100 EXP DUP2 SLOAD DUP2 PUSH20 0xFFFFFFFFFFFFFFFFFFFFFFFFFFFFFFFFFFFFFFFF MUL NOT AND SWAP1 DUP4 PUSH20 0xFFFFFFFFFFFFFFFFFFFFFFFFFFFFFFFFFFFFFFFF AND MUL OR SWAP1 SSTORE POP DUP2 PUSH20 0xFFFFFFFFFFFFFFFFFFFFFFFFFFFFFFFFFFFFFFFF AND DUP2 PUSH20 0xFFFFFFFFFFFFFFFFFFFFFFFFFFFFFFFFFFFFFFFF AND PUSH32 0x8BE0079C531659141344CD1FD0A4F28419497F9722A3DAAFE3B4186F6B6457E0 PUSH1 0x40 MLOAD PUSH1 0x40 MLOAD DUP1 SWAP2 SUB SWAP1 LOG3 POP POP JUMP JUMPDEST PUSH1 0x0 DUP1 REVERT JUMPDEST PUSH1 0x0 PUSH20 0xFFFFFFFFFFFFFFFFFFFFFFFFFFFFFFFFFFFFFFFF DUP3 AND SWAP1 POP SWAP2 SWAP1 POP JUMP JUMPDEST PUSH1 0x0 PUSH2 0x1B7 DUP3 PUSH2 0x18C JUMP JUMPDEST SWAP1 POP SWAP2 SWAP1 POP JUMP JUMPDEST PUSH2 0x1C7 DUP2 PUSH2 0x1AC JUMP JUMPDEST DUP2 EQ PUSH2 0x1D2 JUMPI PUSH1 0x0 DUP1 REVERT JUMPDEST POP JUMP JUMPDEST PUSH1 0x0 DUP2 MLOAD SWAP1 POP PUSH2 0x1E4 DUP2 PUSH2 0x1BE JUMP JUMPDEST SWAP3 SWAP2 POP POP JUMP JUMPDEST PUSH1 0x0 DUP2 SWAP1 POP SWAP2 SWAP1 POP JUMP JUMPDEST PUSH2 0x1FD DUP2 PUSH2 0x1EA JUMP JUMPDEST DUP2 EQ PUSH2 0x208 JUMPI PUSH1 0x0 DUP1 REVERT JUMPDEST POP JUMP JUMPDEST PUSH1 0x0 DUP2 MLOAD SWAP1 POP PUSH2 0x21A DUP2 PUSH2 0x1F4 JUMP JUMPDEST SWAP3 SWAP2 POP POP JUMP JUMPDEST PUSH1 0x0 DUP1 PUSH1 0x40 DUP4 DUP6 SUB SLT ISZERO PUSH2 0x237 JUMPI PUSH2 0x236 PUSH2 0x187 JUMP JUMPDEST JUMPDEST PUSH1 0x0 PUSH2 0x245 DUP6 DUP3 DUP7 ADD PUSH2 0x1D5 JUMP JUMPDEST SWAP3 POP POP PUSH1 0x20 PUSH2 0x256 DUP6 DUP3 DUP7 ADD PUSH2 0x20B JUMP JUMPDEST SWAP2 POP POP SWAP3 POP SWAP3 SWAP1 POP JUMP JUMPDEST PUSH2 0x269 DUP2 PUSH2 0x1AC JUMP JUMPDEST DUP3 MSTORE POP POP JUMP JUMPDEST PUSH1 0x0 PUSH1 0x20 DUP3 ADD SWAP1 POP PUSH2 0x284 PUSH1 0x0 DUP4 ADD DUP5 PUSH2 0x260 JUMP JUMPDEST SWAP3 SWAP2 POP POP JUMP JUMPDEST PUSH2 0x778 DUP1 PUSH2 0x299 PUSH1 0x0 CODECOPY PUSH1 0x0 RETURN INVALID PUSH1 0x80 PUSH1 0x40 MSTORE CALLVALUE DUP1 ISZERO PUSH2 0x10 JUMPI PUSH1 0x0 DUP1 REVERT JUMPDEST POP PUSH1 0x4 CALLDATASIZE LT PUSH2 0x62 JUMPI PUSH1 0x0 CALLDATALOAD PUSH1 0xE0 SHR DUP1 PUSH4 0x2EB4A7AB EQ PUSH2 0x67 JUMPI DUP1 PUSH4 0x5F044052 EQ PUSH2 0x85 JUMPI DUP1 PUSH4 0x715018A6 EQ PUSH2 0xB5 JUMPI DUP1 PUSH4 0x7CB64759 EQ PUSH2 0xBF JUMPI DUP1 PUSH4 0x8DA5CB5B EQ PUSH2 0xDB JUMPI DUP1 PUSH4 0xF2FDE38B EQ PUSH2 0xF9 JUMPI JUMPDEST PUSH1 0x0 DUP1 REVERT JUMPDEST PUSH2 0x6F PUSH2 0x115 JUMP JUMPDEST PUSH1 0x40 MLOAD PUSH2 0x7C SWAP2 SWAP1 PUSH2 0x464 JUMP JUMPDEST PUSH1 0x40 MLOAD DUP1 SWAP2 SUB SWAP1 RETURN JUMPDEST PUSH2 0x9F PUSH1 0x4 DUP1 CALLDATASIZE SUB DUP2 ADD SWAP1 PUSH2 0x9A SWAP2 SWAP1 PUSH2 0x51A JUMP JUMPDEST PUSH2 0x11B JUMP JUMPDEST PUSH1 0x40 MLOAD PUSH2 0xAC SWAP2 SWAP1 PUSH2 0x595 JUMP JUMPDEST PUSH1 0x40 MLOAD DUP1 SWAP2 SUB SWAP1 RETURN JUMPDEST PUSH2 0xBD PUSH2 0x174 JUMP JUMPDEST STOP JUMPDEST PUSH2 0xD9 PUSH1 0x4 DUP1 CALLDATASIZE SUB DUP2 ADD SWAP1 PUSH2 0xD4 SWAP2 SWAP1 PUSH2 0x5B0 JUMP JUMPDEST PUSH2 0x188 JUMP JUMPDEST STOP JUMPDEST PUSH2 0xE3 PUSH2 0x19A JUMP JUMPDEST PUSH1 0x40 MLOAD PUSH2 0xF0 SWAP2 SWAP1 PUSH2 0x61E JUMP JUMPDEST PUSH1 0x40 MLOAD DUP1 SWAP2 SUB SWAP1 RETURN JUMPDEST PUSH2 0x113 PUSH1 0x4 DUP1 CALLDATASIZE SUB DUP2 ADD SWAP1 PUSH2 0x10E SWAP2 SWAP1 PUSH2 0x665 JUMP JUMPDEST PUSH2 0x1C3 JUMP JUMPDEST STOP JUMPDEST PUSH1 0x1 SLOAD DUP2 JUMP JUMPDEST PUSH1 0x0 PUSH2 0x16B DUP5 DUP5 DUP1 DUP1 PUSH1 0x20 MUL PUSH1 0x20 ADD PUSH1 0x40 MLOAD SWAP1 DUP2 ADD PUSH1 0x40 MSTORE DUP1 SWAP4 SWAP3 SWAP2 SWAP1 DUP2 DUP2 MSTORE PUSH1 0x20 ADD DUP4 DUP4 PUSH1 0x20 MUL DUP1 DUP3 DUP5 CALLDATACOPY PUSH1 0x0 DUP2 DUP5 ADD MSTORE PUSH1 0x1F NOT PUSH1 0x1F DUP3 ADD AND SWAP1 POP DUP1 DUP4 ADD SWAP3 POP POP POP POP POP POP POP PUSH1 0x1 SLOAD DUP5 PUSH2 0x249 JUMP JUMPDEST SWAP1 POP SWAP4 SWAP3 POP POP POP JUMP JUMPDEST PUSH2 0x17C PUSH2 0x260 JUMP JUMPDEST PUSH2 0x186 PUSH1 0x0 PUSH2 0x2E7 JUMP JUMPDEST JUMP JUMPDEST PUSH2 0x190 PUSH2 0x260 JUMP JUMPDEST DUP1 PUSH1 0x1 DUP2 SWAP1 SSTORE POP POP JUMP JUMPDEST PUSH1 0x0 DUP1 PUSH1 0x0 SWAP1 SLOAD SWAP1 PUSH2 0x100 EXP SWAP1 DIV PUSH20 0xFFFFFFFFFFFFFFFFFFFFFFFFFFFFFFFFFFFFFFFF AND SWAP1 POP SWAP1 JUMP JUMPDEST PUSH2 0x1CB PUSH2 0x260 JUMP JUMPDEST PUSH1 0x0 PUSH20 0xFFFFFFFFFFFFFFFFFFFFFFFFFFFFFFFFFFFFFFFF AND DUP2 PUSH20 0xFFFFFFFFFFFFFFFFFFFFFFFFFFFFFFFFFFFFFFFF AND SUB PUSH2 0x23D JUMPI PUSH1 0x0 PUSH1 0x40 MLOAD PUSH32 0x1E4FBDF700000000000000000000000000000000000000000000000000000000 DUP2 MSTORE PUSH1 0x4 ADD PUSH2 0x234 SWAP2 SWAP1 PUSH2 0x61E JUMP JUMPDEST PUSH1 0x40 MLOAD DUP1 SWAP2 SUB SWAP1 REVERT JUMPDEST PUSH2 0x246 DUP2 PUSH2 0x2E7 JUMP JUMPDEST POP JUMP JUMPDEST PUSH1 0x0 DUP3 PUSH2 0x256 DUP6 DUP5 PUSH2 0x3AB JUMP JUMPDEST EQ SWAP1 POP SWAP4 SWAP3 POP POP POP JUMP JUMPDEST PUSH2 0x268 PUSH2 0x401 JUMP JUMPDEST PUSH20 0xFFFFFFFFFFFFFFFFFFFFFFFFFFFFFFFFFFFFFFFF AND PUSH2 0x286 PUSH2 0x19A JUMP JUMPDEST PUSH20 0xFFFFFFFFFFFFFFFFFFFFFFFFFFFFFFFFFFFFFFFF AND EQ PUSH2 0x2E5 JUMPI PUSH2 0x2A9 PUSH2 0x401 JUMP JUMPDEST PUSH1 0x40 MLOAD PUSH32 0x118CDAA700000000000000000000000000000000000000000000000000000000 DUP2 MSTORE PUSH1 0x4 ADD PUSH2 0x2DC SWAP2 SWAP1 PUSH2 0x61E JUMP JUMPDEST PUSH1 0x40 MLOAD DUP1 SWAP2 SUB SWAP1 REVERT JUMPDEST JUMP JUMPDEST PUSH1 0x0 DUP1 PUSH1 0x0 SWAP1 SLOAD SWAP1 PUSH2 0x100 EXP SWAP1 DIV PUSH20 0xFFFFFFFFFFFFFFFFFFFFFFFFFFFFFFFFFFFFFFFF AND SWAP1 POP DUP2 PUSH1 0x0 DUP1 PUSH2 0x100 EXP DUP2 SLOAD DUP2 PUSH20 0xFFFFFFFFFFFFFFFFFFFFFFFFFFFFFFFFFFFFFFFF MUL NOT AND SWAP1 DUP4 PUSH20 0xFFFFFFFFFFFFFFFFFFFFFFFFFFFFFFFFFFFFFFFF AND MUL OR SWAP1 SSTORE POP DUP2 PUSH20 0xFFFFFFFFFFFFFFFFFFFFFFFFFFFFFFFFFFFFFFFF AND DUP2 PUSH20 0xFFFFFFFFFFFFFFFFFFFFFFFFFFFFFFFFFFFFFFFF AND PUSH32 0x8BE0079C531659141344CD1FD0A4F28419497F9722A3DAAFE3B4186F6B6457E0 PUSH1 0x40 MLOAD PUSH1 0x40 MLOAD DUP1 SWAP2 SUB SWAP1 LOG3 POP POP JUMP JUMPDEST PUSH1 0x0 DUP1 DUP3 SWAP1 POP PUSH1 0x0 JUMPDEST DUP5 MLOAD DUP2 LT ISZERO PUSH2 0x3F6 JUMPI PUSH2 0x3E1 DUP3 DUP7 DUP4 DUP2 MLOAD DUP2 LT PUSH2 0x3D4 JUMPI PUSH2 0x3D3 PUSH2 0x692 JUMP JUMPDEST JUMPDEST PUSH1 0x20 MUL PUSH1 0x20 ADD ADD MLOAD PUSH2 0x409 JUMP JUMPDEST SWAP2 POP DUP1 DUP1 PUSH2 0x3EE SWAP1 PUSH2 0x6FA JUMP JUMPDEST SWAP2 POP POP PUSH2 0x3B4 JUMP JUMPDEST POP DUP1 SWAP2 POP POP SWAP3 SWAP2 POP POP JUMP JUMPDEST PUSH1 0x0 CALLER SWAP1 POP SWAP1 JUMP JUMPDEST PUSH1 0x0 DUP2 DUP4 LT PUSH2 0x421 JUMPI PUSH2 0x41C DUP3 DUP5 PUSH2 0x434 JUMP JUMPDEST PUSH2 0x42C JUMP JUMPDEST PUSH2 0x42B DUP4 DUP4 PUSH2 0x434 JUMP JUMPDEST JUMPDEST SWAP1 POP SWAP3 SWAP2 POP POP JUMP JUMPDEST PUSH1 0x0 DUP3 PUSH1 0x0 MSTORE DUP2 PUSH1 0x20 MSTORE PUSH1 0x40 PUSH1 0x0 KECCAK256 SWAP1 POP SWAP3 SWAP2 POP POP JUMP JUMPDEST PUSH1 0x0 DUP2 SWAP1 POP SWAP2 SWAP1 POP JUMP JUMPDEST PUSH2 0x45E DUP2 PUSH2 0x44B JUMP JUMPDEST DUP3 MSTORE POP POP JUMP JUMPDEST PUSH1 0x0 PUSH1 0x20 DUP3 ADD SWAP1 POP PUSH2 0x479 PUSH1 0x0 DUP4 ADD DUP5 PUSH2 0x455 JUMP JUMPDEST SWAP3 SWAP2 POP POP JUMP JUMPDEST PUSH1 0x0 DUP1 REVERT JUMPDEST PUSH1 0x0 DUP1 REVERT JUMPDEST PUSH1 0x0 DUP1 REVERT JUMPDEST PUSH1 0x0 DUP1 REVERT JUMPDEST PUSH1 0x0 DUP1 REVERT JUMPDEST PUSH1 0x0 DUP1 DUP4 PUSH1 0x1F DUP5 ADD SLT PUSH2 0x4AE JUMPI PUSH2 0x4AD PUSH2 0x489 JUMP JUMPDEST JUMPDEST DUP3 CALLDATALOAD SWAP1 POP PUSH8 0xFFFFFFFFFFFFFFFF DUP2 GT ISZERO PUSH2 0x4CB JUMPI PUSH2 0x4CA PUSH2 0x48E JUMP JUMPDEST JUMPDEST PUSH1 0x20 DUP4 ADD SWAP2 POP DUP4 PUSH1 0x20 DUP3 MUL DUP4 ADD GT ISZERO PUSH2 0x4E7 JUMPI PUSH2 0x4E6 PUSH2 0x493 JUMP JUMPDEST JUMPDEST SWAP3 POP SWAP3 SWAP1 POP JUMP JUMPDEST PUSH2 0x4F7 DUP2 PUSH2 0x44B JUMP JUMPDEST DUP2 EQ PUSH2 0x502 JUMPI PUSH1 0x0 DUP1 REVERT JUMPDEST POP JUMP JUMPDEST PUSH1 0x0 DUP2 CALLDATALOAD SWAP1 POP PUSH2 0x514 DUP2 PUSH2 0x4EE JUMP JUMPDEST SWAP3 SWAP2 POP POP JUMP JUMPDEST PUSH1 0x0 DUP1 PUSH1 0x0 PUSH1 0x40 DUP5 DUP7 SUB SLT ISZERO PUSH2 0x533 JUMPI PUSH2 0x532 PUSH2 0x47F JUMP JUMPDEST JUMPDEST PUSH1 0x0 DUP5 ADD CALLDATALOAD PUSH8 0xFFFFFFFFFFFFFFFF DUP2 GT ISZERO PUSH2 0x551 JUMPI PUSH2 0x550 PUSH2 0x484 JUMP JUMPDEST JUMPDEST PUSH2 0x55D DUP7 DUP3 DUP8 ADD PUSH2 0x498 JUMP JUMPDEST SWAP4 POP SWAP4 POP POP PUSH1 0x20 PUSH2 0x570 DUP7 DUP3 DUP8 ADD PUSH2 0x505 JUMP JUMPDEST SWAP2 POP POP SWAP3 POP SWAP3 POP SWAP3 JUMP JUMPDEST PUSH1 0x0 DUP2 ISZERO ISZERO SWAP1 POP SWAP2 SWAP1 POP JUMP JUMPDEST PUSH2 0x58F DUP2 PUSH2 0x57A JUMP JUMPDEST DUP3 MSTORE POP POP JUMP JUMPDEST PUSH1 0x0 PUSH1 0x20 DUP3 ADD SWAP1 POP PUSH2 0x5AA PUSH1 0x0 DUP4 ADD DUP5 PUSH2 0x586 JUMP JUMPDEST SWAP3 SWAP2 POP POP JUMP JUMPDEST PUSH1 0x0 PUSH1 0x20 DUP3 DUP5 SUB SLT ISZERO PUSH2 0x5C6 JUMPI PUSH2 0x5C5 PUSH2 0x47F JUMP JUMPDEST JUMPDEST PUSH1 0x0 PUSH2 0x5D4 DUP5 DUP3 DUP6 ADD PUSH2 0x505 JUMP JUMPDEST SWAP2 POP POP SWAP3 SWAP2 POP POP JUMP JUMPDEST PUSH1 0x0 PUSH20 0xFFFFFFFFFFFFFFFFFFFFFFFFFFFFFFFFFFFFFFFF DUP3 AND SWAP1 POP SWAP2 SWAP1 POP JUMP JUMPDEST PUSH1 0x0 PUSH2 0x608 DUP3 PUSH2 0x5DD JUMP JUMPDEST SWAP1 POP SWAP2 SWAP1 POP JUMP JUMPDEST PUSH2 0x618 DUP2 PUSH2 0x5FD JUMP JUMPDEST DUP3 MSTORE POP POP JUMP JUMPDEST PUSH1 0x0 PUSH1 0x20 DUP3 ADD SWAP1 POP PUSH2 0x633 PUSH1 0x0 DUP4 ADD DUP5 PUSH2 0x60F JUMP JUMPDEST SWAP3 SWAP2 POP POP JUMP JUMPDEST PUSH2 0x642 DUP2 PUSH2 0x5FD JUMP JUMPDEST DUP2 EQ PUSH2 0x64D JUMPI PUSH1 0x0 DUP1 REVERT JUMPDEST POP JUMP JUMPDEST PUSH1 0x0 DUP2 CALLDATALOAD SWAP1 POP PUSH2 0x65F DUP2 PUSH2 0x639 JUMP JUMPDEST SWAP3 SWAP2 POP POP JUMP JUMPDEST PUSH1 0x0 PUSH1 0x20 DUP3 DUP5 SUB SLT ISZERO PUSH2 0x67B JUMPI PUSH2 0x67A PUSH2 0x47F JUMP JUMPDEST JUMPDEST PUSH1 0x0 PUSH2 0x689 DUP5 DUP3 DUP6 ADD PUSH2 0x650 JUMP JUMPDEST SWAP2 POP POP SWAP3 SWAP2 POP POP JUMP JUMPDEST PUSH32 0x4E487B7100000000000000000000000000000000000000000000000000000000 PUSH1 0x0 MSTORE PUSH1 0x32 PUSH1 0x4 MSTORE PUSH1 0x24 PUSH1 0x0 REVERT JUMPDEST PUSH32 0x4E487B7100000000000000000000000000000000000000000000000000000000 PUSH1 0x0 MSTORE PUSH1 0x11 PUSH1 0x4 MSTORE PUSH1 0x24 PUSH1 0x0 REVERT JUMPDEST PUSH1 0x0 DUP2 SWAP1 POP SWAP2 SWAP1 POP JUMP JUMPDEST PUSH1 0x0 PUSH2 0x705 DUP3 PUSH2 0x6F0 JUMP JUMPDEST SWAP2 POP PUSH32 0xFFFFFFFFFFFFFFFFFFFFFFFFFFFFFFFFFFFFFFFFFFFFFFFFFFFFFFFFFFFFFFFF DUP3 SUB PUSH2 0x737 JUMPI PUSH2 0x736 PUSH2 0x6C1 JUMP JUMPDEST JUMPDEST PUSH1 0x1 DUP3 ADD SWAP1 POP SWAP2 SWAP1 POP JUMP INVALID LOG2 PUSH5 0x6970667358 0x22 SLT KECCAK256 CODESIZE 0x5E 0xA8 PUSH8 0x27BAA766944019E4 SWAP5 SLT 0xE8 0xD9 0xCC ADDRESS MSIZE 0x49 0xDF MUL STATICCALL CALLDATACOPY 0xEC 0xCF JUMP PUSH28 0xCF85226E64736F6C6343000814003300000000000000000000000000 "},"methodIdentifiers":{"merkleRoot()":"2eb4a7ab","owner()":"8da5cb5b","renounceOwnership()":"715018a6","setMerkleRoot(bytes32)":"7cb64759","transferOwnership(address)":"f2fde38b","verifyMerkleProof(bytes32[],bytes32)":"5f044052"}}}}}