{"contracts/MerkleProofVerifier.sol":{"MerkleProofVerifier":{"abi":[{"inputs":[],"stateMutability":"nonpayable","type":"constructor"},{"anonymous":false,"inputs":[{"indexed":true,"internalType":"bytes32","name":"root","type":"bytes32"}],"name":"MerkleRootSet","type":"event"},{"anonymous":false,"inputs":[{"indexed":true,"internalType":"bytes32","name":"leaf","type":"bytes32"},{"indexed":false,"internalType":"bool","name":"result","type":"bool"}],"name":"ProofVerified","type":"event"},{"inputs":[],"name":"getMerkleRoot","outputs":[{"internalType":"bytes32","name":"","type":"bytes32"}],"stateMutability":"view","type":"function"},{"inputs":[],"name":"owner","outputs":[{"internalType":"address","name":"","type":"address"}],"stateMutability":"view","type":"function"},{"inputs":[{"internalType":"bytes32","name":"_root","type":"bytes32"}],"name":"setMerkleRoot","outputs":[],"stateMutability":"nonpayable","type":"function"},{"inputs":[{"internalType":"bytes32[]","name":"proof","type":"bytes32[]"},{"internalType":"bytes32","name":"root","type":"bytes32"},{"internalType":"bytes32","name":"leaf","type":"bytes32"}],"name":"verifyProof","outputs":[{"internalType":"bool","name":"","type":"bool"}],"stateMutability":"pure","type":"function"},{"inputs":[{"internalType":"bytes32[]","name":"proof","type":"bytes32[]"},{"internalType":"bytes32","name":"leaf","type":"bytes32"}],"name":"verifyTransaction","outputs":[{"internalType":"bool","name":"","type":"bool"}],"stateMutability":"nonpayable","type":"function"}],"evm":{"bytecode":{"linkReferences":{},"object":"608060405234801561001057600080fd5b5033600160006101000a81548173ffffffffffffffffffffffffffffffffffffffff021916908373ffffffffffffffffffffffffffffffffffffffff160217905550610750806100616000396000f3fe608060405234801561001057600080fd5b50600436106100575760003560e01c806342e496421461005c578063495906571461008c5780634bc935d7146100aa5780637cb64759146100da5780638da5cb5b146100f6575b600080fd5b610076600480360381019061007191906103bd565b610114565b6040516100839190610438565b60405180910390f35b61009461016a565b6040516100a19190610462565b60405180910390f35b6100c460048036038101906100bf919061047d565b610173565b6040516100d19190610438565b60405180910390f35b6100f460048036038101906100ef91906104f1565b61022b565b005b6100fe6102f2565b60405161010b919061055f565b60405180910390f35b600080610125858560005486610173565b9050827ff8ea4b84d199e84ff35249e26840ceba1b2a1711d50a01b47e98173701172180826040516101579190610438565b60405180910390a2809150509392505050565b60008054905090565b60008082905060005b8686905081101561021c57600087878381811061019c5761019b61057a565b5b9050602002013590508083116101dc5782816040516020016101bf9291906105ca565b604051602081830303815290604052805190602001209250610208565b80836040516020016101ef9291906105ca565b6040516020818303038152906040528051906020012092505b5080806102149061062f565b91505061017c565b50838114915050949350505050565b600160009054906101000a900473ffffffffffffffffffffffffffffffffffffffff1673ffffffffffffffffffffffffffffffffffffffff163373ffffffffffffffffffffffffffffffffffffffff16146102bb576040517f08c379a00000000000000000000000000000000000000000000000000000000081526004016102b2906106fa565b60405180910390fd5b80600081905550807f42cbc405e4dbf1b691e85b9a34b08ecfcf7a9ad9078bf4d645ccfa1fac11c10b60405160405180910390a250565b600160009054906101000a900473ffffffffffffffffffffffffffffffffffffffff1681565b600080fd5b600080fd5b600080fd5b600080fd5b600080fd5b60008083601f84011261034757610346610322565b5b8235905067ffffffffffffffff81111561036457610363610327565b5b6020830191508360208202830111156103805761037f61032c565b5b9250929050565b6000819050919050565b61039a81610387565b81146103a557600080fd5b50565b6000813590506103b781610391565b92915050565b6000806000604084860312156103d6576103d5610318565b5b600084013567ffffffffffffffff8111156103f4576103f361031d565b5b61040086828701610331565b93509350506020610413868287016103a8565b9150509250925092565b60008115159050919050565b6104328161041d565b82525050565b600060208201905061044d6000830184610429565b92915050565b61045c81610387565b82525050565b60006020820190506104776000830184610453565b92915050565b6000806000806060858703121561049757610496610318565b5b600085013567ffffffffffffffff8111156104b5576104b461031d565b5b6104c187828801610331565b945094505060206104d4878288016103a8565b92505060406104e5878288016103a8565b91505092959194509250565b60006020828403121561050757610506610318565b5b6000610515848285016103a8565b91505092915050565b600073ffffffffffffffffffffffffffffffffffffffff82169050919050565b60006105498261051e565b9050919050565b6105598161053e565b82525050565b60006020820190506105746000830184610550565b92915050565b7f4e487b7100000000000000000000000000000000000000000000000000000000600052603260045260246000fd5b6000819050919050565b6105c46105bf82610387565b6105a9565b82525050565b60006105d682856105b3565b6020820191506105e682846105b3565b6020820191508190509392505050565b7f4e487b7100000000000000000000000000000000000000000000000000000000600052601160045260246000fd5b6000819050919050565b600061063a82610625565b91507fffffffffffffffffffffffffffffffffffffffffffffffffffffffffffffffff820361066c5761066b6105f6565b5b600182019050919050565b600082825260208201905092915050565b7f4f6e6c79206f776e65722063616e2063616c6c20746869732066756e6374696f60008201527f6e00000000000000000000000000000000000000000000000000000000000000602082015250565b60006106e4602183610677565b91506106ef82610688565b604082019050919050565b60006020820190508181036000830152610713816106d7565b905091905056fea264697066735822122093ddc100be8e1fd62a4a42a2f645918ddb26b5d65b5b6ccb713aa7c508153bfa64736f6c63430008140033","opcodes":"PUSH1 0x80 PUSH1 0x40 MSTORE CALLVALUE DUP1 ISZERO PUSH2 0x10 JUMPI PUSH1 0x0 DUP1 REVERT JUMPDEST POP CALLER PUSH1 0x1 PUSH1 0x0 PUSH2 0x100 EXP DUP2 SLOAD DUP2 PUSH20 0xFFFFFFFFFFFFFFFFFFFFFFFFFFFFFFFFFFFFFFFF MUL NOT AND SWAP1 DUP4 PUSH20 0xFFFFFFFFFFFFFFFFFFFFFFFFFFFFFFFFFFFFFFFF AND MUL OR SWAP1 SSTORE POP PUSH2 0x750 DUP1 PUSH2 0x61 PUSH1 0x0 CODECOPY PUSH1 0x0 RETURN INVALID PUSH1 0x80 PUSH1 0x40 MSTORE CALLVALUE DUP1 ISZERO PUSH2 0x10 JUMPI PUSH1 0x0 DUP1 REVERT JUMPDEST POP PUSH1 0x4 CALLDATASIZE LT PUSH2 0x57 JUMPI PUSH1 0x0 CALLDATALOAD PUSH1 0xE0 SHR DUP1 PUSH4 0x42E49642 EQ PUSH2 0x5C JUMPI DUP1 PUSH4 0x49590657 EQ PUSH2 0x8C JUMPI DUP1 PUSH4 0x4BC935D7 EQ PUSH2 0xAA JUMPI DUP1 PUSH4 0x7CB64759 EQ PUSH2 0xDA JUMPI DUP1 PUSH4 0x8DA5CB5B EQ PUSH2 0xF6 JUMPI JUMPDEST PUSH1 0x0 DUP1 REVERT JUMPDEST PUSH2 0x76 PUSH1 0x4 DUP1 CALLDATASIZE SUB DUP2 ADD SWAP1 PUSH2 0x71 SWAP2 SWAP1 PUSH2 0x3BD JUMP JUMPDEST PUSH2 0x114 JUMP JUMPDEST PUSH1 0x40 MLOAD PUSH2 0x83 SWAP2 SWAP1 PUSH2 0x438 JUMP JUMPDEST PUSH1 0x40 MLOAD DUP1 SWAP2 SUB SWAP1 RETURN JUMPDEST PUSH2 0x94 PUSH2 0x16A JUMP JUMPDEST PUSH1 0x40 MLOAD PUSH2 0xA1 SWAP2 SWAP1 PUSH2 0x462 JUMP JUMPDEST PUSH1 0x40 MLOAD DUP1 SWAP2 SUB SWAP1 RETURN JUMPDEST PUSH2 0xC4 PUSH1 0x4 DUP1 CALLDATASIZE SUB DUP2 ADD SWAP1 PUSH2 0xBF SWAP2 SWAP1 PUSH2 0x47D JUMP JUMPDEST PUSH2 0x173 JUMP JUMPDEST PUSH1 0x40 MLOAD PUSH2 0xD1 SWAP2 SWAP1 PUSH2 0x438 JUMP JUMPDEST PUSH1 0x40 MLOAD DUP1 SWAP2 SUB SWAP1 RETURN JUMPDEST PUSH2 0xF4 PUSH1 0x4 DUP1 CALLDATASIZE SUB DUP2 ADD SWAP1 PUSH2 0xEF SWAP2 SWAP1 PUSH2 0x4F1 JUMP JUMPDEST PUSH2 0x22B JUMP JUMPDEST STOP JUMPDEST PUSH2 0xFE PUSH2 0x2F2 JUMP JUMPDEST PUSH1 0x40 MLOAD PUSH2 0x10B SWAP2 SWAP1 PUSH2 0x55F JUMP JUMPDEST PUSH1 0x40 MLOAD DUP1 SWAP2 SUB SWAP1 RETURN JUMPDEST PUSH1 0x0 DUP1 PUSH2 0x125 DUP6 DUP6 PUSH1 0x0 SLOAD DUP7 PUSH2 0x173 JUMP JUMPDEST SWAP1 POP DUP3 PUSH32 0xF8EA4B84D199E84FF35249E26840CEBA1B2A1711D50A01B47E98173701172180 DUP3 PUSH1 0x40 MLOAD PUSH2 0x157 SWAP2 SWAP1 PUSH2 0x438 JUMP JUMPDEST PUSH1 0x40 MLOAD DUP1 SWAP2 SUB SWAP1 LOG2 DUP1 SWAP2 POP POP SWAP4 SWAP3 POP POP POP JUMP JUMPDEST PUSH1 0x0 DUP1 SLOAD SWAP1 POP SWAP1 JUMP JUMPDEST PUSH1 0x0 DUP1 DUP3 SWAP1 POP PUSH1 0x0 JUMPDEST DUP7 DUP7 SWAP1 POP DUP2 LT ISZERO PUSH2 0x21C JUMPI PUSH1 0x0 DUP8 DUP8 DUP4 DUP2 DUP2 LT PUSH2 0x19C JUMPI PUSH2 0x19B PUSH2 0x57A JUMP JUMPDEST JUMPDEST SWAP1 POP PUSH1 0x20 MUL ADD CALLDATALOAD SWAP1 POP DUP1 DUP4 GT PUSH2 0x1DC JUMPI DUP3 DUP2 PUSH1 0x40 MLOAD PUSH1 0x20 ADD PUSH2 0x1BF SWAP3 SWAP2 SWAP1 PUSH2 0x5CA JUMP JUMPDEST PUSH1 0x40 MLOAD PUSH1 0x20 DUP2 DUP4 SUB SUB DUP2 MSTORE SWAP1 PUSH1 0x40 MSTORE DUP1 MLOAD SWAP1 PUSH1 0x20 ADD KECCAK256 SWAP3 POP PUSH2 0x208 JUMP JUMPDEST DUP1 DUP4 PUSH1 0x40 MLOAD PUSH1 0x20 ADD PUSH2 0x1EF SWAP3 SWAP2 SWAP1 PUSH2 0x5CA JUMP JUMPDEST PUSH1 0x40 MLOAD PUSH1 0x20 DUP2 DUP4 SUB SUB DUP2 MSTORE SWAP1 PUSH1 0x40 MSTORE DUP1 MLOAD SWAP1 PUSH1 0x20 ADD KECCAK256 SWAP3 POP JUMPDEST POP DUP1 DUP1 PUSH2 0x214 SWAP1 PUSH2 0x62F JUMP JUMPDEST SWAP2 POP POP PUSH2 0x17C JUMP JUMPDEST POP DUP4 DUP2 EQ SWAP2 POP POP SWAP5 SWAP4 POP POP POP POP JUMP JUMPDEST PUSH1 0x1 PUSH1 0x0 SWAP1 SLOAD SWAP1 PUSH2 0x100 EXP SWAP1 DIV PUSH20 0xFFFFFFFFFFFFFFFFFFFFFFFFFFFFFFFFFFFFFFFF AND PUSH20 0xFFFFFFFFFFFFFFFFFFFFFFFFFFFFFFFFFFFFFFFF AND CALLER PUSH20 0xFFFFFFFFFFFFFFFFFFFFFFFFFFFFFFFFFFFFFFFF AND EQ PUSH2 0x2BB JUMPI PUSH1 0x40 MLOAD PUSH32 0x8C379A000000000000000000000000000000000000000000000000000000000 DUP2 MSTORE PUSH1 0x4 ADD PUSH2 0x2B2 SWAP1 PUSH2 0x6FA JUMP JUMPDEST PUSH1 0x40 MLOAD DUP1 SWAP2 SUB SWAP1 REVERT JUMPDEST DUP1 PUSH1 0x0 DUP2 SWAP1 SSTORE POP DUP1 PUSH32 0x42CBC405E4DBF1B691E85B9A34B08ECFCF7A9AD9078BF4D645CCFA1FAC11C10B PUSH1 0x40 MLOAD PUSH1 0x40 MLOAD DUP1 SWAP2 SUB SWAP1 LOG2 POP JUMP JUMPDEST PUSH1 0x1 PUSH1 0x0 SWAP1 SLOAD SWAP1 PUSH2 0x100 EXP SWAP1 DIV PUSH20 0xFFFFFFFFFFFFFFFFFFFFFFFFFFFFFFFFFFFFFFFF AND DUP2 JUMP JUMPDEST PUSH1 0x0 DUP1 REVERT JUMPDEST PUSH1 0x0 DUP1 REVERT JUMPDEST PUSH1 0x0 DUP1 REVERT JUMPDEST PUSH1 0x0 DUP1 REVERT JUMPDEST PUSH1 0x0 DUP1 REVERT JUMPDEST PUSH1 0x0 DUP1 DUP4 PUSH1 0x1F DUP5 ADD SLT PUSH2 0x347 JUMPI PUSH2 0x346 PUSH2 0x322 JUMP JUMPDEST JUMPDEST DUP3 CALLDATALOAD SWAP1 POP PUSH8 0xFFFFFFFFFFFFFFFF DUP2 GT ISZERO PUSH2 0x364 JUMPI PUSH2 0x363 PUSH2 0x327 JUMP JUMPDEST JUMPDEST PUSH1 0x20 DUP4 ADD SWAP2 POP DUP4 PUSH1 0x20 DUP3 MUL DUP4 ADD GT ISZERO PUSH2 0x380 JUMPI PUSH2 0x37F PUSH2 0x32C JUMP JUMPDEST JUMPDEST SWAP3 POP SWAP3 SWAP1 POP JUMP JUMPDEST PUSH1 0x0 DUP2 SWAP1 POP SWAP2 SWAP1 POP JUMP JUMPDEST PUSH2 0x39A DUP2 PUSH2 0x387 JUMP JUMPDEST DUP2 EQ PUSH2 0x3A5 JUMPI PUSH1 0x0 DUP1 REVERT JUMPDEST POP JUMP JUMPDEST PUSH1 0x0 DUP2 CALLDATALOAD SWAP1 POP PUSH2 0x3B7 DUP2 PUSH2 0x391 JUMP JUMPDEST SWAP3 SWAP2 POP POP JUMP JUMPDEST PUSH1 0x0 DUP1 PUSH1 0x0 PUSH1 0x40 DUP5 DUP7 SUB SLT ISZERO PUSH2 0x3D6 JUMPI PUSH2 0x3D5 PUSH2 0x318 JUMP JUMPDEST JUMPDEST PUSH1 0x0 DUP5 ADD CALLDATALOAD PUSH8 0xFFFFFFFFFFFFFFFF DUP2 GT ISZERO PUSH2 0x3F4 JUMPI PUSH2 0x3F3 PUSH2 0x31D JUMP JUMPDEST JUMPDEST PUSH2 0x400 DUP7 DUP3 DUP8 ADD PUSH2 0x331 JUMP JUMPDEST SWAP4 POP SWAP4 POP POP PUSH1 0x20 PUSH2 0x413 DUP7 DUP3 DUP8 ADD PUSH2 0x3A8 JUMP JUMPDEST SWAP2 POP POP SWAP3 POP SWAP3 POP SWAP3 JUMP JUMPDEST PUSH1 0x0 DUP2 ISZERO ISZERO SWAP1 POP SWAP2 SWAP1 POP JUMP JUMPDEST PUSH2 0x432 DUP2 PUSH2 0x41D JUMP JUMPDEST DUP3 MSTORE POP POP JUMP JUMPDEST PUSH1 0x0 PUSH1 0x20 DUP3 ADD SWAP1 POP PUSH2 0x44D PUSH1 0x0 DUP4 ADD DUP5 PUSH2 0x429 JUMP JUMPDEST SWAP3 SWAP2 POP POP JUMP JUMPDEST PUSH2 0x45C DUP2 PUSH2 0x387 JUMP JUMPDEST DUP3 MSTORE POP POP JUMP JUMPDEST PUSH1 0x0 PUSH1 0x20 DUP3 ADD SWAP1 POP PUSH2 0x477 PUSH1 0x0 DUP4 ADD DUP5 PUSH2 0x453 JUMP JUMPDEST SWAP3 SWAP2 POP POP JUMP JUMPDEST PUSH1 0x0 DUP1 PUSH1 0x0 DUP1 PUSH1 0x60 DUP6 DUP8 SUB SLT ISZERO PUSH2 0x497 JUMPI PUSH2 0x496 PUSH2 0x318 JUMP JUMPDEST JUMPDEST PUSH1 0x0 DUP6 ADD CALLDATALOAD PUSH8 0xFFFFFFFFFFFFFFFF DUP2 GT ISZERO PUSH2 0x4B5 JUMPI PUSH2 0x4B4 PUSH2 0x31D JUMP JUMPDEST JUMPDEST PUSH2 0x4C1 DUP8 DUP3 DUP9 ADD PUSH2 0x331 JUMP JUMPDEST SWAP5 POP SWAP5 POP POP PUSH1 0x20 PUSH2 0x4D4 DUP8 DUP3 DUP9 ADD PUSH2 0x3A8 JUMP JUMPDEST SWAP3 POP POP PUSH1 0x40 PUSH2 0x4E5 DUP8 DUP3 DUP9 ADD PUSH2 0x3A8 JUMP JUMPDEST SWAP2 POP POP SWAP3 SWAP6 SWAP2 SWAP5 POP SWAP3 POP JUMP JUMPDEST PUSH1 0x0 PUSH1 0x20 DUP3 DUP5 SUB SLT ISZERO PUSH2 0x507 JUMPI PUSH2 0x506 PUSH2 0x318 JUMP JUMPDEST JUMPDEST PUSH1 0x0 PUSH2 0x515 DUP5 DUP3 DUP6 ADD PUSH2 0x3A8 JUMP JUMPDEST SWAP2 POP POP SWAP3 SWAP2 POP POP JUMP JUMPDEST PUSH1 0x0 PUSH20 0xFFFFFFFFFFFFFFFFFFFFFFFFFFFFFFFFFFFFFFFF DUP3 AND SWAP1 POP SWAP2 SWAP1 POP JUMP JUMPDEST PUSH1 0x0 PUSH2 0x549 DUP3 PUSH2 0x51E JUMP JUMPDEST SWAP1 POP SWAP2 SWAP1 POP JUMP JUMPDEST PUSH2 0x559 DUP2 PUSH2 0x53E JUMP JUMPDEST DUP3 MSTORE POP POP JUMP JUMPDEST PUSH1 0x0 PUSH1 0x20 DUP3 ADD SWAP1 POP PUSH2 0x574 PUSH1 0x0 DUP4 ADD DUP5 PUSH2 0x550 JUMP JUMPDEST SWAP3 SWAP2 POP POP JUMP JUMPDEST PUSH32 0x4E487B7100000000000000000000000000000000000000000000000000000000 PUSH1 0x0 MSTORE PUSH1 0x32 PUSH1 0x4 MSTORE PUSH1 0x24 PUSH1 0x0 REVERT JUMPDEST PUSH1 0x0 DUP2 SWAP1 POP SWAP2 SWAP1 POP JUMP JUMPDEST PUSH2 0x5C4 PUSH2 0x5BF DUP3 PUSH2 0x387 JUMP JUMPDEST PUSH2 0x5A9 JUMP JUMPDEST DUP3 MSTORE POP POP JUMP JUMPDEST PUSH1 0x0 PUSH2 0x5D6 DUP3 DUP6 PUSH2 0x5B3 JUMP JUMPDEST PUSH1 0x20 DUP3 ADD SWAP2 POP PUSH2 0x5E6 DUP3 DUP5 PUSH2 0x5B3 JUMP JUMPDEST PUSH1 0x20 DUP3 ADD SWAP2 POP DUP2 SWAP1 POP SWAP4 SWAP3 POP POP POP JUMP JUMPDEST PUSH32 0x4E487B7100000000000000000000000000000000000000000000000000000000 PUSH1 0x0 MSTORE PUSH1 0x11 PUSH1 0x4 MSTORE PUSH1 0x24 PUSH1 0x0 REVERT JUMPDEST PUSH1 0x0 DUP2 SWAP1 POP SWAP2 SWAP1 POP JUMP JUMPDEST PUSH1 0x0 PUSH2 0x63A DUP3 PUSH2 0x625 JUMP JUMPDEST SWAP2 POP PUSH32 0xFFFFFFFFFFFFFFFFFFFFFFFFFFFFFFFFFFFFFFFFFFFFFFFFFFFFFFFFFFFFFFFF DUP3 SUB PUSH2 0x66C JUMPI PUSH2 0x66B PUSH2 0x5F6 JUMP JUMPDEST JUMPDEST PUSH1 0x1 DUP3 ADD SWAP1 POP SWAP2 SWAP1 POP JUMP JUMPDEST PUSH1 0x0 DUP3 DUP3 MSTORE PUSH1 0x20 DUP3 ADD SWAP1 POP SWAP3 SWAP2 POP POP JUMP JUMPDEST PUSH32 0x4F6E6C79206F776E65722063616E2063616C6C20746869732066756E6374696F PUSH1 0x0 DUP3 ADD MSTORE PUSH32 0x6E00000000000000000000000000000000000000000000000000000000000000 PUSH1 0x20 DUP3 ADD MSTORE POP JUMP JUMPDEST PUSH1 0x0 PUSH2 0x6E4 PUSH1 0x21 DUP4 PUSH2 0x677 JUMP JUMPDEST SWAP2 POP PUSH2 0x6EF DUP3 PUSH2 0x688 JUMP JUMPDEST PUSH1 0x40 DUP3 ADD SWAP1 POP SWAP2 SWAP1 POP JUMP JUMPDEST PUSH1 0x0 PUSH1 0x20 DUP3 ADD SWAP1 POP DUP2 DUP2 SUB PUSH1 0x0 DUP4 ADD MSTORE PUSH2 0x713 DUP2 PUSH2 0x6D7 JUMP JUMPDEST SWAP1 POP SWAP2 SWAP1 POP JUMP INVALID LOG2 PUSH5 0x6970667358 0x22 SLT KECCAK256 SWAP4 0xDD 0xC1 STOP 0xBE DUP15 0x1F 0xD6 0x2A 0x4A TIMESTAMP LOG2 0xF6 GASLIMIT SWAP2 DUP14 0xDB 0x26 0xB5 0xD6 JUMPDEST JUMPDEST PUSH13 0xCB713AA7C508153BFA64736F6C PUSH4 0x43000814 STOP CALLER "},"methodIdentifiers":{"getMerkleRoot()":"49590657","owner()":"8da5cb5b","setMerkleRoot(bytes32)":"7cb64759","verifyProof(bytes32[],bytes32,bytes32)":"4bc935d7","verifyTransaction(bytes32[],bytes32)":"42e49642"}}}}}