{
  "_format": "hh-sol-artifact-1",
  "contractName": "MerkleProofVerifier",
  "sourceName": "contracts/MerkleProofVerifier.sol",
  "abi": [
    {
      "inputs": [],
      "stateMutability": "nonpayable",
      "type": "constructor"
    },
    {
      "anonymous": false,
      "inputs": [
        {
          "indexed": true,
          "internalType": "bytes32",
          "name": "root",
          "type": "bytes32"
        }
      ],
      "name": "MerkleRootSet",
      "type": "event"
    },
    {
      "anonymous": false,
      "inputs": [
        {
          "indexed": true,
          "internalType": "bytes32",
          "name": "leaf",
          "type": "bytes32"
        },
        {
          "indexed": false,
          "internalType": "bool",
          "name": "result",
          "type": "bool"
        }
      ],
      "name": "ProofVerified",
      "type": "event"
    },
    {
      "inputs": [],
      "name": "getMerkleRoot",
      "outputs": [
        {
          "internalType": "bytes32",
          "name": "",
          "type": "bytes32"
        }
      ],
      "stateMutability": "view",
      "type": "function"
    },
    {
      "inputs": [],
      "name": "owner",
      "outputs": [
        {
          "internalType": "address",
          "name": "",
          "type": "address"
        }
      ],
      "stateMutability": "view",
      "type": "function"
    },
    {
      "inputs": [
        {
          "internalType": "bytes32",
          "name": "_root",
          "type": "bytes32"
        }
      ],
      "name": "setMerkleRoot",
      "outputs": [],
      "stateMutability": "nonpayable",
      "type": "function"
    },
    {
      "inputs": [
        {
          "internalType": "bytes32[]",
          "name": "proof",
          "type": "bytes32[]"
        },
        {
          "internalType": "bytes32",
          "name": "root",
          "type": "bytes32"
        },
        {
          "internalType": "bytes32",
          "name": "leaf",
          "type": "bytes32"
        }
      ],
      "name": "verifyProof",
      "outputs": [
        {
          "internalType": "bool",
          "name": "",
          "type": "bool"
        }
      ],
      "stateMutability": "pure",
      "type": "function"
    },
    {
      "inputs": [
        {
          "internalType": "bytes32[]",
          "name": "proof",
          "type": "bytes32[]"
        },
        {
          "internalType": "bytes32",
          "name": "leaf",
          "type": "bytes32"
        }
      ],
      "name": "verifyTransaction",
      "outputs": [
        {
          "internalType": "bool",
          "name": "",
          "type": "bool"
        }
      ],
      "stateMutability": "nonpayable",
      "type": "function"
    }
  ],
  "bytecode": "0x608060405234801561001057600080fd5b5033600160006101000a81548173ffffffffffffffffffffffffffffffffffffffff021916908373ffffffffffffffffffffffffffffffffffffffff160217905550610750806100616000396000f3fe608060405234801561001057600080fd5b50600436106100575760003560e01c806342e496421461005c578063495906571461008c5780634bc935d7146100aa5780637cb64759146100da5780638da5cb5b146100f6575b600080fd5b610076600480360381019061007191906103bd565b610114565b6040516100839190610438565b60405180910390f35b61009461016a565b6040516100a19190610462565b60405180910390f35b6100c460048036038101906100bf919061047d565b610173565b6040516100d19190610438565b60405180910390f35b6100f460048036038101906100ef91906104f1565b61022b565b005b6100fe6102f2565b60405161010b919061055f565b60405180910390f35b600080610125858560005486610173565b9050827ff8ea4b84d199e84ff35249e26840ceba1b2a1711d50a01b47e98173701172180826040516101579190610438565b60405180910390a2809150509392505050565b60008054905090565b60008082905060005b8686905081101561021c57600087878381811061019c5761019b61057a565b5b9050602002013590508083116101dc5782816040516020016101bf9291906105ca565b604051602081830303815290604052805190602001209250610208565b80836040516020016101ef9291906105ca565b6040516020818303038152906040528051906020012092505b5080806102149061062f565b91505061017c565b50838114915050949350505050565b600160009054906101000a900473ffffffffffffffffffffffffffffffffffffffff1673ffffffffffffffffffffffffffffffffffffffff163373ffffffffffffffffffffffffffffffffffffffff16146102bb576040517f08c379a00000000000000000000000000000000000000000000000000000000081526004016102b2906106fa565b60405180910390fd5b80600081905550807f42cbc405e4dbf1b691e85b9a34b08ecfcf7a9ad9078bf4d645ccfa1fac11c10b60405160405180910390a250565b600160009054906101000a900473ffffffffffffffffffffffffffffffffffffffff1681565b600080fd5b600080fd5b600080fd5b600080fd5b600080fd5b60008083601f84011261034757610346610322565b5b8235905067ffffffffffffffff81111561036457610363610327565b5b6020830191508360208202830111156103805761037f61032c565b5b9250929050565b6000819050919050565b61039a81610387565b81146103a557600080fd5b50565b6000813590506103b781610391565b92915050565b6000806000604084860312156103d6576103d5610318565b5b600084013567ffffffffffffffff8111156103f4576103f361031d565b5b61040086828701610331565b93509350506020610413868287016103a8565b9150509250925092565b60008115159050919050565b6104328161041d565b82525050565b600060208201905061044d6000830184610429565b92915050565b61045c81610387565b82525050565b60006020820190506104776000830184610453565b92915050565b6000806000806060858703121561049757610496610318565b5b600085013567ffffffffffffffff8111156104b5576104b461031d565b5b6104c187828801610331565b945094505060206104d4878288016103a8565b92505060406104e5878288016103a8565b91505092959194509250565b60006020828403121561050757610506610318565b5b6000610515848285016103a8565b91505092915050565b600073ffffffffffffffffffffffffffffffffffffffff82169050919050565b60006105498261051e565b9050919050565b6105598161053e565b82525050565b60006020820190506105746000830184610550565b92915050565b7f4e487b7100000000000000000000000000000000000000000000000000000000600052603260045260246000fd5b6000819050919050565b6105c46105bf82610387565b6105a9565b82525050565b60006105d682856105b3565b6020820191506105e682846105b3565b6020820191508190509392505050565b7f4e487b7100000000000000000000000000000000000000000000000000000000600052601160045260246000fd5b6000819050919050565b600061063a82610625565b91507fffffffffffffffffffffffffffffffffffffffffffffffffffffffffffffffff820361066c5761066b6105f6565b5b600182019050919050565b600082825260208201905092915050565b7f4f6e6c79206f776e65722063616e2063616c6c20746869732066756e6374696f60008201527f6e00000000000000000000000000000000000000000000000000000000000000602082015250565b60006106e4602183610677565b91506106ef82610688565b604082019050919050565b60006020820190508181036000830152610713816106d7565b905091905056fea264697066735822122093ddc100be8e1fd62a4a42a2f645918ddb26b5d65b5b6ccb713aa7c508153bfa64736f6c63430008140033",
  "linkReferences": {},
  "deployedLinkReferences": {}
}